:020000040801F1
:10080000F0FF0120113901080138010805380108FD
:10081000093801080D3801081138010800000000EE
:100820000000000000000000000000001538010872
:1008300019380108000000001D380108213801089E
:10084000613901086139010861390108613901081C
:10085000613901086139010831380108613901083D
:1008600061390108613901086139010861390108FC
:1008700061390108613901086139010861390108EC
:1008800061390108613901086139010861390108DC
:1008900061380108613901086139010861390108CD
:1008A00061390108613901086139010861390108BC
:1008B00061390108613901086139010861390108AC
:1008C000613901086139010861390108613901089C
:1008D000613901086139010861390108613901088C
:1008E000613901086139010861390108613901087C
:1008F000613901086139010861390108613901086C
:10090000613901086139010861390108613901085B
:100910006139010861390108753801086139010838
:10092000CD380108613901086139010861390108D0
:100930006139010800000000000000006139010871
:1009400061390108E138010861390108613901089C
:10095000613901086139010861390108613901080B
:1009600061390108613901086139010861390108FB
:10097000613901086139010861390108000000008E
:1009800000000000613901080000000000000000C4
:100990006139010800000000000000006139010811
:1009A00000000000000000000000000061390108A4
:1009B00061390108613901086139010861390108AB
:0409C0006139010890
:1009C80010B5054C237833B9044B13B10448AFF381
:1009D80000800123237010BDB80200200000000031
:1009E800C460020808B5034B1BB103490348AFF3C1
:1009F800008008BD00000000BC020020C46002089E
:100A080081F0004102E000BF83F0004330B54FEAB7
:100A180041044FEA430594EA050F08BF90EA020F24
:100A28001FBF54EA000C55EA020C7FEA645C7FEAB7
:100A3800655C00F0E2804FEA5454D4EB5555B8BFDA
:100A48006D420CDD2C4480EA020281EA030382EA4B
:100A5800000083EA010180EA020281EA0303362DDD
:100A680088BF30BD11F0004F4FEA01314FF4801CB0
:100A78004CEA113102D0404261EB410113F0004FC2
:100A88004FEA03334CEA133302D0524263EB430379
:100A980094EA050F00F0A780A4F10104D5F1200E17
:100AA8000DDB02FA0EFC22FA05F2801841F1000172
:100AB80003FA0EF2801843FA05F359410EE0A5F146
:100AC80020050EF1200E012A03FA0EFC28BF4CF077
:100AD800020C43FA05F3C01851EBE37101F000452D
:100AE80007D54FF0000EDCF1000C7EEB00006EEB3A
:100AF8000101B1F5801F1BD3B1F5001F0CD34908C4
:100B08005FEA30004FEA3C0C04F101044FEA44521A
:100B180012F5800F80F09A80BCF1004F08BF5FEAA1
:100B2800500C50F1000041EB045141EA050130BD81
:100B38005FEA4C0C404141EB0101013C28BFB1F593
:100B4800801FE9D291F0000F04BF01460020B1FADE
:100B580081F308BF2033A3F10B03B3F120020CDAB1
:100B68000C3208DD02F1140CC2F10C0201FA0CF08F
:100B780021FA02F10CE002F11402D8BFC2F1200CF4
:100B880001FA02F120FA0CFCDCBF41EA0C019040AA
:100B9800E41AA2BF01EB0451294330BD6FEA0404F3
:100BA8001F3C1CDA0C340EDC04F11404C4F12002DE
:100BB80020FA04F001FA02F340EA030021FA04F3F0
:100BC80045EA030130BDC4F10C04C4F1200220FA47
:100BD80002F001FA04F340EA0300294630BD21FA85
:100BE80004F0294630BD94F0000F83F4801306BF4B
:100BF80081F480110134013D4EE77FEA645C18BF3F
:100C08007FEA655C29D094EA050F08BF90EA020FD5
:100C180005D054EA000C04BF1946104630BD91EACD
:100C2800030F1EBF0021002030BD5FEA545C05D1D0
:100C38004000494128BF41F0004130BD14F580040F
:100C48003CBF01F5801130BD01F0004545F0FE4183
:100C580041F470014FF0000030BD7FEA645C1ABFB8
:100C6800194610467FEA655C1CBF0B46024650EAEF
:100C7800013406BF52EA033591EA030F41F400211B
:100C880030BD00BF90F0000F04BF0021704730B5A1
:100C98004FF4806404F132044FF000054FF0000176
:100CA80050E700BF90F0000F04BF0021704730B537
:100CB8004FF4806404F1320410F0004548BF40420C
:100CC8004FF000013EE700BF42004FEAE2014FEA61
:100CD80031014FEA02701FBF12F07F4393F07F4F3C
:100CE80081F06051704732F07F4208BF704793F03F
:100CF8007F4F04BF41F40021704730B54FF4607452
:100D080001F0004521F000411CE700BF50EA010254
:100D180008BF704730B54FF000050AE050EA0102FD
:100D280008BF704730B511F0004502D5404261EB6D
:100D380041014FF4806404F132045FEA915C3FF4AE
:100D4800D8AE4FF003025FEADC0C18BF03325FEA4B
:100D5800DC0C18BF033202EBDC02C2F1200300FAFC
:100D680003FC20FA02F001FA03FE40EA0E0021FA21
:100D780002F11444BDE600BF70B54FF0FF0C4CF40F
:100D8800E06C1CEA11541DBF1CEA135594EA0C0FC1
:100D980095EA0C0F00F0DEF82C4481EA030621EAFC
:100DA8004C5123EA4C5350EA013518BF52EA033537
:100DB80041F4801143F4801338D0A0FB02CE4FF0E9
:100DC8000005E1FB02E506F00042E0FB03E54FF019
:100DD8000006E1FB03569CF0000F18BF4EF0010E11
:100DE800A4F1FF04B6F5007F64F5407404D25FEA0D
:100DF8004E0E6D4146EB060642EAC62141EA5551C0
:100E08004FEAC52040EA5E504FEACE2EB4F1FD0C01
:100E180088BFBCF5E06F1ED8BEF1004F08BF5FEA7F
:100E2800500E50F1000041EB045170BD06F0004631
:100E380046EA010140EA020081EA0301B4EB5C04DE
:100E4800C2BFD4EB0C0541EA045170BD41F48011D6
:100E58004FF0000E013C00F3AB8014F1360FDEBFFB
:100E6800002001F0004170BDC4F10004203C35DAD7
:100E78000C341BDC04F11404C4F1200500FA05F35A
:100E880020FA04F001FA05F240EA020001F00042FB
:100E980021F0004110EBD37021FA04F642EB060171
:100EA8005EEA430E08BF20EAD37070BDC4F10C049B
:100EB800C4F1200500FA04F320FA05F001FA04F25F
:100EC80040EA020001F0004110EBD37041F100014B
:100ED8005EEA430E08BF20EAD37070BDC4F1200556
:100EE80000FA05F24EEA020E20FA04F301FA05F2BE
:100EF80043EA020321FA04F001F0004121FA04F266
:100F080020EA020000EBD3705EEA430E08BF20EA35
:100F1800D37070BD94F0000F0FD101F0004640006F
:100F280041EB010111F4801F08BF013CF7D041EAF1
:100F3800060195F0000F18BF704703F000465200F5
:100F480043EB030313F4801F08BF013DF7D043EAC6
:100F58000603704794EA0C0F0CEA135518BF95EA7C
:100F68000C0F0CD050EA410618BF52EA4306D1D103
:100F780081EA030101F000414FF0000070BD50EA22
:100F8800410606BF1046194652EA430619D094EAAC
:100F98000C0F02D150EA013613D195EA0C0F05D196
:100FA80052EA03361CBF104619460AD181EA0301EA
:100FB80001F0004141F0FE4141F470014FF00000A2
:100FC80070BD41F0FE4141F4780170BD70B54FF03D
:100FD800FF0C4CF4E06C1CEA11541DBF1CEA1355BD
:100FE80094EA0C0F95EA0C0F00F0A7F8A4EB05049F
:100FF80081EA030E52EA03354FEA013100F0888096
:101008004FEA03334FF0805545EA131343EA12635E
:101018004FEA022245EA111545EA10654FEA002613
:101028000EF000419D4208BF964244F1FD0404F5CC
:10103800407402D25B084FEA3202B61A65EB030528
:101048005B084FEA32024FF480104FF4002CB6EBE5
:10105800020E75EB030E22BFB61A754640EA0C0065
:101068005B084FEA3202B6EB020E75EB030E22BFA5
:10107800B61A754640EA5C005B084FEA3202B6EBE6
:10108800020E75EB030E22BFB61A754640EA9C00A5
:101098005B084FEA3202B6EB020E75EB030E22BF75
:1010A800B61A754640EADC0055EA060E18D04FEA33
:1010B800051545EA16754FEA06164FEAC30343EAD3
:1010C80052734FEAC2025FEA1C1CC0D111F4801FA0
:1010D8000BD141EA00014FF000004FF0004CB6E799
:1010E80011F4801F04BF01430020B4F1FD0C88BF38
:1010F800BCF5E06F3FF6AFAEB5EB030C04BFB6EB43
:10110800020C5FEA500C50F1000041EB045170BD35
:101118000EF0004E4EEA113114EB5C04C2BFD4EB62
:101128000C0541EA045170BD41F480114FF0000EE6
:10113800013C90E645EA060E8DE60CEA135594EA62
:101148000C0F08BF95EA0C0F3FF43BAF94EA0C0F65
:101158000AD150EA01347FF434AF95EA0C0F7FF4DA
:1011680025AF104619462CE795EA0C0F06D152EA2E
:1011780003353FF4FDAE1046194622E750EA410612
:1011880018BF52EA43067FF4C5AE50EA41047FF423
:101198000DAF52EA43057FF4EBAE12E74FF0FF3C88
:1011A80006E000BF4FF0010C02E000BF4FF0010C59
:1011B8004DF804CD4FEA410C7FEA6C5C4FEA430CD2
:1011C80018BF7FEA6C5C1BD001B050EA410C0CBF21
:1011D80052EA430C91EA030F02BF90EA020F002083
:1011E800704710F1000F91EA030F58BF994208BFEA
:1011F80090422CBFD8176FEAE37040F001007047A7
:101208004FEA410C7FEA6C5C02D150EA013C07D1FD
:101218004FEA430C7FEA6C5CD6D152EA033CD3D048
:101228005DF8040B704700BF8446104662468C4642
:101238001946634600E000BF01B5FFF7B7FF002875
:1012480048BF10F1000F01BD4DF808EDFFF7F4FF9E
:101258000CBF012000205DF808FB00BF4DF808ED29
:10126800FFF7EAFF34BF012000205DF808FB00BF4C
:101278004DF808EDFFF7E0FF94BF012000205DF86E
:1012880008FB00BF4DF808EDFFF7CEFF94BF012023
:1012980000205DF808FB00BF4DF808EDFFF7C4FF1C
:1012A80034BF012000205DF808FB00BF4FEA410C65
:1012B8007FEA6C5C02D150EA013C0AD14FEA430C48
:1012C8007FEA6C5C02D152EA033C02D14FF0000085
:1012D80070474FF0010070474FEA410212F50012C3
:1012E80015D211D56FF47873B3EB625212D94FEA65
:1012F800C12343F0004343EA505311F0004F23FA4F
:1013080002F018BF404270474FF00000704750EAA3
:10131800013005D111F0004008BF6FF00040704760
:101328004FF00000704700BF4A0011D212F50012BA
:1013380011D20DD56FF47873B3EB62520ED44FEA25
:10134800C12343F0004343EA505323FA02F07047A5
:101358004FF00000704750EA013002D14FF0FF30E3
:1013680070474FF0000070474FEA4102B2F1E04386
:1013780024BFB3F5001CDCF1FE5C0DD901F0004C74
:101388004FEAC0024CEA5070B2F1004F40EB8300C4
:1013980008BF20F00100704711F0804F21D113F1F0
:1013A8003872BCBF01F00040704741F480114FEA29
:1013B8005252C2F11802C2F1200C10FA0CF320FAB2
:1013C80002F018BF40F001004FEAC1234FEAD323CF
:1013D80003FA0CFC40EA0C0023FA02F34FEA430339
:1013E800CCE77FEA625307D150EA01331EBF4FF0C2
:1013F800FE4040F44000704701F0004040F0FE40DD
:1014080040F40000704700BF53B94AB9002908BF2B
:1014180000281CBF4FF0FF314FF0FF3000F088B9B3
:10142800ADF1080C6DE904CE00F006F8DDF804E033
:10143800DDE9022304B070472DE9F047089D8E4688
:1014480004468846002B4AD18A42174662D9B2FA26
:1014580082F64EB1C6F1200301FA06F820FA03F32A
:10146800B74043EA0808B4404FEA174E1FFA87FC12
:10147800B8FBFEF1230C0EFB118843EA084301FB7D
:101488000CF29A4209D9FB1801F1FF3080F0EA808A
:101498009A4240F2E78002393B449A1AA3B2B2FB5F
:1014A800FEF00EFB102243EA024300FB0CFC9C45B5
:1014B80009D9FB1800F1FF3280F0D6809C4540F234
:1014C800D3803B44023840EA0140A3EB0C030021DF
:1014D8001DB1F3400022C5E90032BDE8F0878B4218
:1014E80005D90DB1C5E9000100210846F5E7B3FAB1
:1014F80083F1002946D1734502D3824200F2058167
:10150800841A6EEB030201209046002DE5D0C5E950
:101518000048E2E7002A00F09080B2FA82F6002E36
:1015280040F0A4808A1A030C4FEA174E80B2BCB26E
:101538000121B2FBFEFC0EFB1C2243EA024304FB22
:101548000CF29A4207D9FB180CF1FF3802D29A42E2
:1015580000F2E080C4469B1AB3FBFEF20EFB123386
:1015680040EA034302FB04F49C4207D9FB1802F14A
:10157800FF3002D29C4200F2CA8002461B1B42EA9C
:101588000C40A5E7C1F120068B4022FA06F71F435D
:101598000EFA01F420FA06F32EFA06FE4FEA17496E
:1015A800234300FA01F81FFA87FCBEFBF9F01C0C74
:1015B80009FB10EE44EA0E4400FB0CFEA64502FAB5
:1015C80001F209D93C1900F1FF3A80F09C80A64548
:1015D80040F2998002383C44A4EB0E041FFA83FEC3
:1015E800B4FBF9F309FB13444EEA044403FB0CFC77
:1015F800A44508D93C1903F1FF3E80F08280A44538
:101608007FD9023B3C4443EA0040A4EB0C04A0FB16
:1016180002EC64457346E14662D35FD05DB1B8EB36
:10162800030264EB090404FA06F622FA01F31E43E6
:10163800CC40C5E9006400214FE7B1FBF2FC010C86
:1016480041EA0E4180B240EA01423B4638463C46F8
:10165800B846BE462026B1FBF7F1A2EB080241EAE4
:101668000C4166E7014618E710462CE7C6F1200250
:101678002EFA02F3B740B14020FA02F24FEA174EB1
:101688000A43B3FBFEF8BCB20EFB1833110C41EA57
:10169800034108FB04F9B04089454FEA104380B282
:1016A8003ED9791808F1FF3C01D289451FD8A1EB32
:1016B8000901B1FBFEF909FB04F80EFB191192B2FE
:1016C80042EA0142424529D2BA1809F1FF31C4D28F
:1016D8004245C2D2A9F102013A44BEE7F0459DD283
:1016E800BEEB02036CEB070C0138E14696E7A7EB6B
:1016F80009094944A8F1020CB1FBFEF909FB04F8F9
:10170800DBE773467FE7504666E70846FDE63B445D
:10171800023A33E7ACF1020C3B441CE749469CE72C
:10172800A1EB0901C446B1FBFEF909FB04F8C4E7C3
:10173800704700BF014B33F8200070478404002035
:1017480070B582B001A940F2064002F007F9019A8B
:101758004AF655239A4200F04D81BB4D40F20644AB
:1017680040F20F462046013455F8041FA4B202F097
:101778001DF9B442F6D1B54DB54C0FCD0FC40FCD00
:101788000FC42B68236001A940F20F4002F0E6F86D
:10179800019A4AF655239A4200F01982AD4D40F25B
:1017A8000F4405F1600655F8041F204602F0FEF8C4
:1017B8000134AE42A4B2F6D1A749A848602213F07A
:1017C800F9FD01A940F2274002F0C8F8019A4AF64B
:1017D80055239A4200F0EA81A14D40F2274440F295
:1017E80031462046013455F8041BA4B202F0DEF855
:1017F800B442F6D19A4D9B4C0FCD0FC40FCD0FC4F8
:1018080095E8030084E8030001A940F2314002F0A2
:10181800A5F8019A4AF655239A4200F0B681924DEE
:1018280040F2314440F237462046013455F8041B53
:10183800A4B202F0BBF8B442F6D18B4D8B4C0FCD5D
:101848000FC495E8030084E8030001A940F237407B
:1018580002F084F8019A4AF655239A4200F08481EE
:10186800834D40F2374440F23D462046013455F856
:10187800041BA4B202F09AF8B442F6D17C4D7D4C18
:101888000FCD0FC495E8030084E8030001A940F2D6
:101898003D4002F063F8019A4AF655239A4200F057
:1018A8005281754D40F23D4405F1540655F8041F28
:1018B800204602F07BF80134AE42A4B2F6D16F495B
:1018C8006F48542213F076FD01A940F2524002F00D
:1018D80045F8019A4AF655239A4200F02381694D4A
:1018E80040F2524440F257462046013455F8041B52
:1018F800A4B202F05BF8B442F6D1624D624C0FCD4F
:101908000FC42B68236001A940F2574002F026F863
:10191800019B4AF655218B4200F0F48040F2574073
:1019280002F044F801214FF48B6002F03FF8574A67
:10193800574B92E8030083E8030001A940F259409D
:1019480002F00CF8019B4AF655218B4200F0C38047
:1019580040F2594002F02AF87D2140F25A4002F044
:1019680025F84FF4FA7140F25B4002F01FF8494A3B
:10197800494B07CA83E8070001A940F25C4001F01F
:10198800EDFF019A4AF655239A4200F09380434DA1
:1019980040F25C4405F14C0655F8041F204602F05D
:1019A80005F80134AE42A4B2F6D13D493D484C2277
:1019B80013F000FD01A940F26F4001F0CFFF019B39
:1019C8004AF655218B4226D040F26F4001F0EEFFD7
:1019D80024214FF48E6001F0E9FF4EF6602140F2B9
:1019E800714001F0E3FF304A304B07CA83E8070033
:1019F80002B070BD2E4D40F2064440F20F4620461C
:101A0800013401A9A4B201F0A9FF019B45F8043FE4
:101A1800B442F4D1B7E6254C01A940F26F4001F079
:101A28009DFF019B236001A94FF48E6001F096FF92
:101A3800019B636001A940F2714001F08FFF019B97
:101A4800A36002B070BD00BF806202088462020811
:101A580060040020206202082462020800040020BA
:101A6800FC610208D8030020E4610208C0030020DA
:101A7800CC610208A803002074610208786102089A
:101A88005403002064610208400300205C610208DE
:101A980038030020506102082C030020006102086E
:101AA80004610208E0020020F8600208D402002065
:101AB8005C0400204E4D40F25C4405F14C06204683
:101AC80001A901F04BFF019B45F8043F0134AE42E8
:101AD800A4B2F4D16EE7474C01A940F2594001F095
:101AE8003DFF019B236001A940F25A4001F036FFF7
:101AF800019B636040F25B4001A901F02FFF019B4D
:101B0800A36039E73C4C01A940F2574001F026FF99
:101B1800019B23604FF48B6001A901F01FFF019B1B
:101B280063600AE7354D40F2524440F2574620467A
:101B3800013401A9A4B201F011FF019B45F8043B4F
:101B4800B442F4D1DFE62E4D40F23D4405F154068F
:101B5800204601A901F002FF019B45F8043F01342A
:101B6800AE42A4B2F4D1AFE6264D40F2374440F27B
:101B78003D462046013401A9A4B201F0EFFE019BC5
:101B880045F8043BB442F4D180E61F4D40F231449D
:101B980040F237462046013401A9A4B201F0DEFE26
:101BA800019B45F8043BB442F4D14EE6174D40F290
:101BB800274440F231462046013401A9A4B201F07D
:101BC800CDFE019B45F8043BB442F4D11CE6104D10
:101BD80040F20F4405F16006204601A901F0BEFE5F
:101BE800019B45F8043F0134AE42A4B2F4D1E8E5C4
:101BF800DC0200202C0300203803002040030020D2
:101C080050030020A8030020C0030020D8030020B0
:101C1800FC03002070B5174E82B001A94FF47A700A
:101C280001F09CFE019B326813499A420B600CD06C
:101C3800351F4FF47A74743655F8041F204601F0A6
:101C4800B5FE0134B542A4B2F6D10C4D4FF47A7406
:101C580005F17806204601A901F080FE019B45F8B0
:101C6800043F0134B542A4B2F4D102B0BDE87040DB
:101C7800FFF766BDA86202088404002080040020E3
:101C880070B50B4684B04968044618686B4603C3B0
:101C9800BDF801209DF8035091B20023A142CDE97F
:101CA80002331CD1A4F50052A2F119030A2B0AD859
:101CB800DFE803F0272D3306393F454B5157210004
:101CC800012D40F29780802302A88DF80830ADF8E6
:101CD80009408DF80B5000F067FB04B070BD8023FD
:101CE80002A88DF80830ADF809208DF80B5000F0E7
:101CF8005BFB04B070BD082DE5D8724E06EB850677
:101D080034E0022DDFD8704E06EB85062EE0122D4A
:101D1800D9D86E4E06EB850628E0022DD3D86C4E36
:101D280006EB850622E0042DCDD86A4E06EB850623
:101D38001CE0142DC7D8684E06EB850616E0052D65
:101D4800C1D8664E06EB850610E0052DBBD8644E5B
:101D580006EB85060AE0092DB5D8624E06EB850626
:101D680004E0172DAFD8604E06EB85069DF80030CD
:101D7800233B1D2BA7D801A151F823F0A11E010870
:101D8800CF1C0108CF1C0108CF1C01086D1E0108DB
:101D9800CF1C0108CF1C0108CF1C01083F1E0108F9
:101DA800CF1C0108CF1C0108CF1C01080D1E01081B
:101DB800CF1C0108CF1C0108CF1C0108CF1C01084B
:101DC800CF1C0108CF1C0108CF1C0108CF1C01083B
:101DD800CF1C0108CF1C0108CF1C0108CF1C01082B
:101DE800CF1C0108CF1C0108CF1C0108CF1C01081B
:101DF800051E01083D4E06EB8506B7E733680393D9
:101E08004B2361E7002D3FF45EAFA2F119039BB2AB
:101E1800374A32F8133005F11E0018449DF8043093
:101E28003370C0B2316800F57A7001F0BFFD3368D5
:101E38000393602348E7002D3FF445AFA2F119034F
:101E48009BB22B4A32F8133005F11E001844BDF836
:101E580004303380C0B2316800F57A7001F0A6FD15
:101E68003368E5E7002D3FF42EAFA2F119039BB2CA
:101E78001F4A32F8133005F11E001844BDF804302B
:101E880033809DF80630B370C0B2316800F57A70BF
:101E980001F08CFD3368CBE7002D3FF414AFA2F1BD
:101EA80019039BB2124A019932F81330316005F1D7
:101EB8001E001844C0B200F57A7001F077FD33684F
:101EC800B6E700BF60040020D4020020E002002032
:101ED8002C0300204003002054030020A803002006
:101EE800C0030020D803002000040020380300208D
:101EF800E060020870B5034686B00068596802AA17
:101F080003C2BDF809400022A0B204920592A0F5D0
:101F18000052193A0A2A5BD99DF80B505DB9802303
:101F280004A88DF81030ADF811408DF8135000F06A
:101F38003BFA06B070BD029B464A23F07F4323F06C
:101F4800FF039342EBD19DF80830233B1D2BE6D8C5
:101F580001A252F823F000BF4F200108271F0108F3
:101F6800271F0108271F010831200108271F010822
:101F7800271F0108271F01081D200108271F010826
:101F8800271F0108271F0108F51F0108271F01083F
:101F9800271F0108271F0108271F0108271F0108FD
:101FA800271F0108271F0108271F0108271F0108ED
:101FB800271F0108271F0108271F0108271F0108DD
:101FC800271F0108271F0108271F0108E31F010811
:101FD8001946FFF755FE06B070BD01A905F57A70E0
:101FE80001F0BCFC019A05924B2399E71A4B9DF826
:101FF8000C2003F8252053F8251005F57A7630468D
:1020080001F0D4FC01A9304601F0A8FC019B05931E
:10201800602385E7104BBDF80C2023F8252005F533
:102028007A7653F82510EAE70B4BBDF80C1023F825
:10203800251003EB85029DF80E10917053F82510BA
:1020480005F57A76DBE7044B039943F8251005F587
:102058007A76D4E7002420008404002040F2DF7C54
:1020680060450B4602D0B0F5E06F5BD170B5A44A6D
:102078000221917019780A094FD1A24CA4F80418CA
:1020880000293FD04A1E052A40F2A3809A1CA21AB2
:10209800022A49D858789A7820706270D81C027839
:1020A800A27003292ED01A79E27004292AD05A790D
:1020B8002271052926D09A796271062922D0DA7907
:1020C800A27107291ED01A7AE27108291AD05A7A01
:1020D8002272092916D09A7A62720A2912D0DA7AFB
:1020E800A2720B290ED01A7BE2720C290AD05A7BF5
:1020F80022730D2906D00F299A7B08BFDB7B6273F8
:1021080008BFA373002384F80238A4F806187D4892
:10211800BDE87040022200F02DBB012A2AD0022A15
:1021280061D070BD00F0EAB98A08D3F801002060D8
:10213800012A6ED0032A08BFD3F80920D3F8050076
:1021480008BFA2608A076060DCD001F0FC02501C66
:1021580003EB000C81421B5CA3540CF1010ED1D996
:1021680002329EF8003023549142CBD99CF80230B9
:10217800A354C7E7634C090201F47061A4F804187A
:102188005878DA1CA21A0144022AA4F8041849D97A
:10219800D3F802109A79DB79216022715A49637168
:1021A8004FF0060C40F20113A4F802380322A4F8F9
:1021B80006C80223302481F802280C808B704FF463
:1021C800E160BDE87040A1F80808A1F8042800F013
:1021D800D1BB5A782270012994D09A78627002296A
:1021E80090D0D81C5BE7474C94F803C801F00F0067
:1021F8006045B4F8041821D00622B4F8063884F8EB
:10220800022899428DD8BDE870403E48022200F06D
:10221800B1BA03F1050C03F1060E5B7923710520B1
:1022280004229DE79978DA781879217062705979D3
:102238009A79A070DB79E1702271AFE7013000294B
:1022480054D0B4F806C80CF1010292B2A4F80628DA
:102258005D7804F80C50012938D90CF1020E1FFAE8
:102268008EFEA4F806E89D78A55402292ED90CF113
:102278000305ADB2A4F80658DE7804F80E60032909
:1022880024D90CF10406B6B2A4F8066893F804E061
:1022980004F805E0042919D90CF1050E1FFA8EFE81
:1022A800A4F806E85D79A55505290FD90CF10605AE
:1022B800ADB2A4F806589E7904F80E60062905D92F
:1022C8000CF1070CA4F806C8DB796355102808BF81
:1022D800002007290B4628BF0723013B134402228D
:1022E8009BB284F8022884F803088AE7102884F847
:1022F800022814BF84F8030884F8031883E700BF92
:10230800BC350020080D0020FC04002010B507296A
:1023180082B00C4612D80278302A0146E3B20FD0B8
:1023280022460DF101008DF8003013F043F8621CCD
:102338004FF4E160D2B2694600F0E8FA02B010BD8D
:102348001A464FF4E16002B0BDE8104000F0DEBA72
:1023580010B5072982B00C4612D80278302A0146F7
:10236800E3B20FD022460DF101008DF8003013F0D2
:1023780021F8621C4FF4E160D2B2694600F0FAFA23
:1023880002B010BD1A464FF4E16002B0BDE810403B
:1023980000F0F0BA00F0F8B808B500F033F8BDE87E
:1023A800084000F02FB800BF144B421C9A1A022AAA
:1023B80007D942680168C3E90012114B01225A701B
:1023C8007047427890F800C0817800B55A70C2789A
:1023D80090F804E083F800C0997090F805C08179FE
:1023E800DA70C279DA7183F804E083F805C099716C
:1023F800034B01225A705DF804FB00BF4015002012
:102408007015002038B5304D2B880BB32F4C6278EF
:10241800012A2AD0012B1BD92D4C6278012A2DD0F4
:10242800022B15D92B4C6278012A30D0032B0FD9F7
:10243800294C6278012A33D0042B09D9274C6278B9
:10244800012A37D0052B03D9254C6378012B00D0FE
:1024580038BD2449082240F2825000F057FA01287A
:10246800F6D101340023237038BD1F490822882083
:1024780000F04CFA0128F4D02B88CBE71B4908223E
:10248800892000F043FA0128EBD02B88C8E71849C7
:102498000822902000F03AFA0128E2D02B88C5E7FC
:1024A800144908224FF4C47000F030FA0128D8D03B
:1024B8002B88C1E7104908224FF4227000F026FA51
:1024C8000128CED02B88BDE726150020B0150020A6
:1024D8009C150020901500208415002074150020FC
:1024E8007015002040150020681500206015002098
:1024F8005815002050150020481500201D4B1B883A
:102508007BB11D4A90420DD0012B0AD002F5001272
:1025180090422CD0022B04D0184B984208BF0222BC
:1025280001D070470022164B164803EB02134FF0F8
:10253800010C9B6800F822C001EB0C029A1A022ACF
:1025480004D90A681A604A685A6070470A781A708B
:102558004A785A708A789A70CA78DA700A791A7141
:102568004A795A718A799A71CA79DA71D9E7012256
:10257800D9E700BF2015002064013004640160041D
:1025880020630208141500200848094A09490A4B23
:102598004FF0060CA0F800C04FF0040C0120A2F880
:1025A80000C0032208801A80704700BF261500204B
:1025B800241500202215002020150020054B01229B
:1025C80030B1A3F80120018842689A6099800022FE
:1025D8001A70704718000020054B012230B1A3F88B
:1025E8000120018842689A60998000221A70704719
:1025F8000C000020054B012230B1A3F8012001880E
:1026080042689A60998000221A7070470000002082
:102618000E4A0F4B92780F4902F00F0213444FF005
:10262800E022C1F8F03F916993695B1A312BFBD81E
:1026380072B6BFF34F8F0849084BCA6802F4E062CC
:102648001343CB60BFF34F8F00BFFDE7BC350020BD
:10265800A0A5AA5500F0012000ED00E00400FA054D
:1026680038B5144C5023237004F500550278627075
:1026780002232B800378012B0ED0022B05D0032BCD
:102688000DD041F27F03238038BD2B791A07F8D586
:1026980043F004032B7138BD0023AB8038BD02F032
:1026A8008BF80128EDD12B79286143F008032B71B1
:1026B80038BD00BFBC15002030B42B4B03F50052C9
:1026C80067214FF0060CA2F800C0197001780329A1
:1026D80037D0042906D0022042F27F711080198079
:1026E80030BC7047117A214C92F809C0D0F801002B
:1026F80081F0040100BA54F8211081F0271181F407
:1027080040718CEA010C5FFA8CFC54F82C5085EA75
:10271800112C917A81EA0C01C9B254F8211081EA8E
:102728001C2CD17A81EA0C01C9B254F8211081EA33
:102738001C21C9438142CED1022001215870517118
:10274800CEE7117911F00C0FC5D00948016800884F
:102758000CBA946042BA0124080E090C5C70987097
:10276800D9709A8030BC7047BC15002050630208AD
:1027780030480020464901F5005C8CF802200378B7
:102788003E2B27D8212B20D9223B1C2B1CD8DFE835
:1027980003F00F1B1B1B1B3A3D1B1B1B1B1B1B1B8F
:1027A8001B1B1B1B1B1B1B1B1B1B1B1B1B1B560051
:1027B8000723ACF80030427883784A708B704278EF
:1027C8006220FB2A087054D07047102B1AD10130B0
:1027D800FFF746BF852B14D19CF804301B0736D56C
:1027E8000223ACF8003043784B70C522012B0A70E5
:1027F8004AD0022BE8D101238CF80D30CCF81030E8
:102808007047704770470130FFF756BF9CF8043097
:102818001B0725D50323ACF80030427883784A702B
:102828008B704278682008704AB3032ACCD1032BF6
:10283800CAD101238CF80C30CCF8103070479CF8C2
:1028480004301A07C0D50123CCF810307047032094
:1028580048F27F523323ACF800000A808B70B3E74C
:10286800032042F67F023323ACF800000A808B7005
:102878007047882BA8D1074BC1F803307047032B4A
:10288800A2D18CF80C20704700238CF80D307047CB
:10289800BC15002004221501024842F2240200213E
:1028A80012F056BDBC15002010B5164C236943B173
:1028B800023341F2EC32934210D900232361237191
:1028C800A3812188104B41B11B88B3F5147F07D031
:1028D800A378012B0FD0022B07D010BD2361F0E79E
:1028E80023791B07F4D5FFF793FE0748FFF730FD60
:1028F8000023238010BD0448FFF708FD0023238030
:1029080010BD00BFBC350020BC1500202DE9F041EA
:1029180088B00023B0F5006F4FF00005019328BF81
:102928000423CDE904350F46144634BF02900390C2
:102938008DF81C50BAB1DFF8388003E0069BE41A22
:102948001D4410D0082C264601AB28BF08267A194A
:1029580002A9404606960FF00BF80028EED000209A
:1029680008B0BDE8F081012008B0BDE8F08100BFE3
:10297800403800202DE9F04188B00023B0F5006F01
:102988004FF00005019328BF0423CDE904350F4615
:10299800144634BF029003908DF81C50BAB1DFF88A
:1029A800388003E0069BE41A1D4410D0082C264604
:1029B80001AB28BF08267A1902A9404606960EF0F0
:1029C800D7FF0028EED0002008B0BDE8F081012034
:1029D80008B0BDE8F08100BF1838002030B50024E9
:1029E80097B0CDE90A44CDE90C44CDE90344CDE9DB
:1029F80005441F4A01940794116C1E4B41F0805105
:102A08001164126C02F080520192019A02941A68C1
:102A180042F440421A601B6803F4404302930122C7
:102A28004FF48033CDE908230A23022510934FF48D
:102A38008002B423CDE90E5211930222022308A882
:102A4800CDE912230299149511F076F810F01CFDC7
:102A58000F23CDE903354FF4A0524FF4805303A858
:102A68000521CDE90542079310F04AFD17B030BDA6
:102A780000380240007000402DE98048ABB00EF0ED
:102A88005FFBFFF7ABFF5822002114A800264FF088
:102A9800010912F05DFC102313A813938DF8A4907C
:102AA80010F0DCFDCDE91366CDE91566C44C01963E
:102AB8001796236BC348C44FDFF84CB343F00403A5
:102AC8002363236B03F004030193019B0296236B9A
:102AD80043F080032363236B03F080030293029B7C
:102AE8000396236B43EA09032363236B03EA090371
:102AF8000393039B0496236B43F002032363236B26
:102B080003F002030493049B0596236B43F0080328
:102B18002363236B03F008030593324640F62C31F8
:102B2800059B0FF0B9FE3246A84841F284410FF0E8
:102B3800B3FE4CF21003A348139313A9CDE914660E
:102B48000FF0B0FB4FF400539E48139313A9CDE93F
:102B580014960FF0A7FB4FF488139A48CDF84C90C1
:102B680013A9149315960FF09DFB40F62C33954846
:102B7800139313A9CDE9149616960FF093FB41F21F
:102B880084439248139313A9CDE9149616960FF02F
:102B980089FB4FF400438E48139313A9CDE91466BB
:102BA8000FF080FB04238B48139313A9CDE9146617
:102BB8000FF078FB08238548139313A9CDE9146611
:102BC8000FF070FB3246314606200FF04FF9062011
:102BD8000FF088F97B4832464FF400710FF05CFE25
:102BE8000096236B43F480032363236B03F4800371
:102BF8003246314600933820009B0FF037F93820D1
:102C08000FF070F97448C7F810904FF48033C7E993
:102C180000034FF080544FF06063C7E90A34384628
:102C28000A2487F83090FC61BE603E7687F8206001
:102C3800FE607E61CDE91366CDE915660EF0BEFA39
:102C4800664B139313A938460225CDE914960EF066
:102C58005DFC082313A938464FF00308CDE9133566
:102C68000EF054FC042313A93846CDE913384FF06D
:102C7800050A0EF04BFC042313A93846CDE913A32B
:102C88000EF044FC092313A93846CDF850A013933D
:102C98004FF0070A0EF03AFC062313A93846CDE98F
:102CA80013A30EF033FC062313A93846CDF850A021
:102CB80013930EF02BFC4FF0080C0B2313A9384686
:102CC800CDE9133C0EF022FC092313A938461493CE
:102CD80013950EF01BFC13A93846CDE913840EF0AA
:102CE80015FC22463E49DFF824A138460EF012FBB7
:102CF8003C4BCBF8183014234FF45021CBF8043058
:102D080058464FF40013CBE90413CBE90266ABF83D
:102D18001C60CBF800A00EF0AFFC3348334F46617F
:102D28004FF4803383611223C0E900734FF40033FA
:102D38000361C0E9026686830EF09EFCDFF8D0C00E
:102D48002B482C4BC661C0E900C34FF48043036194
:102D580080230362C0E90266C0E905660FF0E4FF5C
:102D68002548264AC4624FF48273C0E900234FF411
:102D780000711823224C8662C0E90613C0E9046971
:102D8800C0E90266C0E9086611F08AF920223146D6
:102D980013A8CDE90966CDE90D66CDE90F66CDE941
:102DA8001166089606960C960B96079612F0D0FABE
:102DB800144B2360602742F2283320462AE000BFE4
:102DC8000038024000080240C838002000040240D1
:102DD80000000240000C02400020014012000010D8
:102DE800E835002000010100183800200068004084
:102DF800C4370020A08601006C370020003C00404A
:102E080024370020000001404038002000640040C2
:102E180000540040C4E90273C4E904666660A66110
:102E280011F00EFC4FF4805308A92046089312F0C5
:102E380029F8204611F00EFD06A92046CDE90666C0
:102E480012F018FA32460CA92046CDE90C76CDE9E5
:102E58000E66CDE91066129611F00EFF04220CA939
:102E6800204611F009FF08220CA9204611F004FFA2
:102E78004FF40053E22213A9204618931692CDE985
:102E88001366159617961A9612F034FA204611F022
:102E9800E1FC204600F04EFC204600F04BFC2022CE
:102EA800314614A812F054FACDF84C80DFF8F882B5
:102EB800CDF854904FF08042C8F8002013A94FF085
:102EC800FF324046C8F80C20C8E90166CDF8649086
:102ED800C8F81060C8F81860CDE90C6611F00AFE51
:102EE80040460CA9CDE90C6612F0C4F929463246D1
:102EF8001D209E4DDFF8B4820EF0B8FF1D200EF0A5
:102F0800F1FF9B4A2A60102342F20F72C5E901368D
:102F180028468023EA60AB612E61CDE90C66CDE9D5
:102F28000E66CDE90866CDE91366CDE91566CDE9EB
:102F38001766199611F084FB4FF480530CA92846A4
:102F48000C9311F09FFF284611F084FC08A928462D
:102F5800CDE9086612F08EF9324613A92846CDE964
:102F680013761596179611F087FE13A904222846A2
:102F780011F082FE284600F0DDFB7E4AC8F80020EA
:102F8800404644F25062C8F80C20C8E90167C8E915
:102F98000466C8F81860CDE91366CDE91566CDE971
:102FA8000C6611F04DFB4FF4805313A94046724F45
:102FB800139311F067FF20230CA940460C930D963C
:102FC80012F058F909236D49FB608023BB6138462C
:102FD800B323C7E90013BE60CDE9136611F030FBD7
:102FE80013A93846CDE9136612F044F9644B6548D5
:102FF8001E70324604210FF04FFC01F0B7FD01F0BE
:10300800A1FF01F0F5FB01F033FD4A465D480421BC
:103018000FF042FC5A4B83F800900BF0CDF900F00A
:103028005FFF3246314606200EF020FF06200EF0E4
:1030380059FF01F0C5FA09F057FD204611F098FB39
:10304800404611F095FB3146284611F09BFC31466D
:10305800324636200EF00AFF36200EF043FF38467F
:1030680011F0BCFBDBF80030474FDFF84491474DC7
:10307800474CDFF840811022DA600822DA60FFF757
:103088000BFCFFF787F9FFF787F9DAF81830414AA0
:103098001B0E1380DAF818303F4AC3F3074358462B
:1030A80013800EF0CFFE04280AD058460EF0CAFE50
:1030B800022805D0394B1A6840F2DB539A421DDDCD
:1030C800364B58461E600EF057FB354BCBF8183080
:1030D80014234FF45021CBF8043058464FF4001312
:1030E800CBE90413CBE90266CBF800A0ABF81C606F
:1030F8000EF0C2FA01F03AFD01F024FF01F08AFD5A
:1031080001F0C8FB3B68012B02D93E6000F0C0FC0F
:10311800244B1B68012B05DD01F080FFFFF7C4FB82
:10312800204B1E60D9F80030092B19DC2B68272B9F
:103138002368C8BF2E60632B09DDD8F800302660ED
:10314800C72BA0DDC8F800600DF07EFD9BE7D8F81E
:103158000030C72B97DDC8F800600DF075FD92E7C9
:10316800C9F8006001F018FFE0E700BF94360020BE
:1031780000040040000401404C36002000100040CC
:10318800E43500200008024000360020C43A002040
:10319800C83A0020E2350020E0350020383E002003
:1031A80000010100BC3A0020DC3600200436002073
:1031B800C03A0020CC3A0020704700BF82B00C4BC8
:1031C800002100915A6C42F480425A645A6C02F40D
:1031D80080420092009A01911A6C42F080521A645F
:1031E8001B6C03F080530193019B02B0704700BF32
:1031F8000038024070B5384B02688AB000249A4201
:10320800CDE90444CDE90644089401D00AB070BD64
:1032180003F58C3300945A6C304E42F480725A6431
:103228005A6C02F480720092009A01941A6B42F070
:1032380004021A631A6B02F004020192019A0294C2
:103248001A6B42F001021A631A6B02F00102029231
:10325800029A03941A6B42F002021A631B6B03F082
:10326800020303930222032304A905461C48CDE95F
:103278000423039B0FF016F8FC2203231948069435
:1032880004A9CDE904230FF00DF8032203231648FF
:10329800069404A9CDE904230FF004F8134A7462D4
:1032A8004FF48063C6E9002433614FF400624FF4A1
:1032B8000053C6E9052330464FF48073C6E902443B
:1032C800C6E907340EF048FE18B9AE63B5630AB014
:1032D80070BDFFF771FFF8E7002001406838002053
:1032E800000802400000024000040240106402404E
:1032F80030B5026844498DB000238A42CDE90633CF
:10330800CDE908330A9337D040498A4201D00DB03D
:1033180030BD3F4A0393116C3E4841F0806111640F
:10332800116C01F0806103910168039C013101294E
:10333800016055D0364B00240594186B40F002000C
:1033480018631B6B34489FED2C7B03F00203059335
:1033580006A909230322CDE909238DED067B059DE6
:103368000EF0A0FF2246012141200EF07FFD4120F2
:103378000EF0B8FD0DB030BD26490A680132012AA9
:103388000A6021D0224B00240294186B40F00100FF
:1033980018631B6B21489FED1A7B03F0010302930E
:1033A80006A909230322CDE909238DED067B029D99
:1033B8000EF078FF2246012114200EF057FD14204C
:1033C8000EF090FD0DB030BD114A0193136C43F01F
:1033D80000731364136C03F000730193019BD1E72E
:1033E8000493136C43F000731364136C03F00073BD
:1033F8000493049B9EE700BF6000000002000000E9
:10340800001800000200000000640040006800404E
:103418000038024010390020000402400000024039
:1034280008B51A4A036893421BD0194A934200D040
:1034380008BD02F5E8321749136C23F08063136462
:103448000B68013B0B601BB9136C23F0007313640A
:10345800114860210FF006F9BDE8084041200EF040
:103468004FBD0C4A1368013B136023B90B4A136C18
:1034780023F0007313640A484FF4C0510FF0F2F8B8
:10348800BDE8084014200EF03BBD00BF00640040BA
:103498000068004010390020000402400038024053
:1034A8000000024070B5204B026888B000259A429F
:1034B8000495069501D008B070BD04464FF44072DB
:1034C8000123CDE9022302A90223184805930EF02F
:1034D800E9FE2368164E4FF400421A601D600095FD
:1034E800336B43F002033363336B03F0020300933F
:1034F8004FF440720323009802920593122204238A
:103508000A48069302A9CDE903250EF0CBFE0195E2
:10351800336C43F400133364336C03F400130193E6
:10352800019B08B070BD00BF005400400004024079
:103538000038024070B5244B02688AB000249A42D1
:10354800CDE90444CDE90644089401D00AB070BD21
:1035580003F5FE3301941A6C1C4842F400421A64C5
:103568001A6C02F400420192019A02941A6B42F01A
:1035780004021A631A6B02F004020292029A03947C
:103588001A6B42F002021A631B6B03F002030393E7
:103598004FF4A0520326062504A90223CDE90423EB
:1035A800CDE90765039B0EF07DFE10230DEB0301AB
:1035B8000493074808950223CDE9064605930EF0C3
:1035C80071FE0AB070BD00BF003C00400008024018
:1035D8000004024000B5344A0368934287B01AD009
:1035E800324A934208D0324A934246D0314A9342F3
:1035F80034D007B05DF804FB2F4B002203921A6CFD
:1036080042F002021A641B6C03F002030393039B4B
:1036180007B05DF804FB284B00220092596C41F07A
:1036280001015964596C01F001010091009901925E
:10363800196B41F001011963196B01F00101019146
:10364800019902921A6B42F002021A631B6B03F093
:1036580002030293029B07B05DF804FB164B00229D
:1036680005925A6C42F002025A645B6C03F0020342
:103678000593059B07B05DF804FB00220E4B0492EE
:10368800196C41F0100119641B6C03F010030493CA
:1036980011463620049B0EF0E9FB362007B05DF892
:1036A80004EB0EF01FBC00BF000001400004004006
:1036B80000100040000401400038024000000000F3
:1036C80000B5026889B00023B2F1804FCDE902331A
:1036D800CDE90433069302D009B05DF804FB02F586
:1036E8000E320093106C40F001001064106C00F072
:1036F8000100009000980193136B0D4843F00103FB
:103708001363136B9FED087B03F00103019302A978
:1037180001238DED027B019A06930EF0C3FD09B0DB
:103728005DF804FBAFF30080030000000200000016
:103738000000024030B50368294A8BB00024934248
:10374800CDE90444CDE90644089404D0254A9342BF
:103758002FD00BB030BD244B01941A6B234842F094
:1037680002021A631A6B02F002020192019A029491
:103778001A6B42F001021A631B6B03F001030293F8
:103788004FF46042012504A90223CDE904230895DA
:10379800029B0EF087FD4FF4E0620223144808955F
:1037A80004A9CDE90423CDE906440EF07BFD0BB056
:1037B80030BD0D4B03941A6B0E4842F004021A6395
:1037C8001B6B03F004030393C0240223022504A9FE
:1037D800CDE90445039A08930EF064FD0BB030BDA3
:1037E800000001400004004000380240000402408C
:1037F8000000024000080240FEE700BFFEE700BFED
:10380800FEE700BFFEE700BFFEE700BF704700BF4E
:10381800704700BF704700BF024A13680133136046
:103828000DF0A8BC1439002008B501200FF03AF8B3
:10383800074801210FF02AF8012800D008BD054BE0
:103848001B78012BFAD1BDE8084004F031BF00BF56
:1038580000080240E435002008B503480EF09CF942
:10386800BDE8084001F0E0BC4038002030B40E4C00
:103878000E4923680E4A0F480F4D013323600B6829
:103888000E4C01330B6013680133136002682B6818
:10389800511C5A1C2368016001332A6023600848C0
:1038A80030BC11F0A1BB00BF00360020CC3A00208C
:1038B800C83A0020C43A0020C03A0020BC3A002090
:1038C8004C36002008B500F095F8BDE808400148DE
:1038D8000EF012BC6838002008B501F0E5F8BDE824
:1038E800084001480EF058B918380020044B054923
:1038F800D3F8882042F47002C3F888209960704792
:1039080000ED00E000080108DFF834D0FFF7EEFF13
:103918000C480D490D4A002302E0D458C450043322
:10392800C4188C42F9D30A4A0A4C002301E01360F8
:103938000432A242FBD311F019FDFFF79DF870473E
:10394800F0FF012000000020B4020020608402087B
:10395800B8020020684F0020FEE700002DE9F0477C
:10396800800086B0104F894685B24FF480140DF15F
:10397800140A4FF6FF78042601E0013C0BD0CDE98C
:103988000168CDF800A010232A46A12138460FF07F
:10399800ADFB0028F1D1059B01201BBAC9F8003006
:1039A80006B0BDE8F08700BFC43700202DE9F0431A
:1039B80087B0800009BA0E4E049185B24FF4801486
:1039C8000DF110094FF6FF78042701E0013C0BD0F8
:1039D800CDE90178CDF8009010232A46A021304681
:1039E8000FF06AFA0028F1D1012007B0BDE8F08392
:1039F800C437002038B5214C23880133238006F0D2
:103A0800B9FF2588012D1DD000D838BD09F096FDD5
:103A180000224FF400611A480EF03EFF09F03AFE0A
:103A2800184A194B1288198A5982092A22D009F092
:103A3800F5FE09F0E1FF0AF057F809F01FFD002331
:103A4800238038BD04F06EFD2A460D484FF400610E
:103A58000EF022FF0D4B5D8709F036FE04F0ACFC3A
:103A680004F05CFF0AF078FB0AF06CFCBDE8384013
:103A78000AF0DEBA05F014FDE1E700BF1A390020AC
:103A88000008024074000020444A0020784A0020C0
:103A980010B584B007F03AF902F0B6F902F0DCFA92
:103AA8000AF002FC06F02CFB194A138801339BB27A
:103AB800012B22D8138006F0B5FB04F03BFB04F081
:103AC8002FFE144B93ED010A07F0D2FE124A138819
:103AD80001339BB2632B15D81380104C0AF09CFF5E
:103AE8000DF052F804F110030FCB8DE80F0094E8A5
:103AF8000F0006F079F904B010BD0023138005F01B
:103B08007DF8D8E7002313800AF0E6FCE5E700BF5C
:103B1800183900203C4C002028000020884700204D
:103B280030B5424885B001224FF400610EF0B4FE72
:103B38003E4800224FF400610EF0AEFE4FF0E02147
:103B480000208A698B699342FCD002EB000404D2FE
:103B5800E01AB32807D81A46F4E74C69E41A224455
:103B68001044B328F7D9314801224FF400610024EA
:103B78000EF092FE2E4800224FF480510EF08CFE7B
:103B8800FF232A488DF80E30224620218DF80F4059
:103B98000EF082FE01231A460DF10E01254810F0A1
:103BA800E1FA2248012220210EF076FE01251F4865
:103BB8008DF80F40202122460EF06EFE2B460DF1A7
:103BC8000F020DF10E011B48009510F0CFFB1748AE
:103BD8002A4620210EF060FE15482A464FF48051EF
:103BE8000EF05AFE114822464FF400610EF054FEC2
:103BF8004FF0E0202246816983698B42FCD001EBBB
:103C0800020404D2E21AB32A07D81946F4E7446931
:103C1800E41A21440A44B32AF7D9044801224FF48C
:103C2800006105B0BDE830400EF036BE0008024025
:103C3800000402406C3700202DE9F047DFF8F080DF
:103C48003A4DDFF8F09084B000260746002240463F
:103C58004FF480510EF020FE802332462846202162
:103C68008DF80E308DF80F600EF016FE01231A46FF
:103C78000DF10E01484610F075FA28460122202160
:103C880001240EF009FE3246284620218DF80F60E7
:103C98000EF002FE23460DF10F020DF10E01009405
:103CA800484610F063FB2246284620210EF0F4FD1A
:103CB80081233246284620219DF80FA08DF80E302A
:103CC8008DF80F600EF0E8FD234622460DF10E0137
:103CD800484610F047FA2246284620210EF0DCFD1F
:103CE8003246284620218DF80F600EF0D5FD234678
:103CF8000DF10F020DF10E010094484610F036FB4D
:103D08002246284620210EF0C7FD9DF80F304FEAC5
:103D18000A2A534423F00F0322464FF480514046A9
:103D28003B8004B0BDE8F0470EF0B6BD0008024085
:103D3800000402406C3700202DE9F041224F234D4A
:103D4800DFF88C8084B000240646002238464FF401
:103D580080510EF0A1FDFF232246284620218DF830
:103D68000E308DF80F400EF097FD01231A460DF125
:103D78000E01404610F0F6F92846012220210EF0E7
:103D88008BFD8DF80F4022462846012420210EF095
:103D980083FD23460DF10E010DF10F0240460094FC
:103DA80010F0E4FA2246284620210EF075FD9DF811
:103DB8000F3033704FF480512246384604B0BDE8C6
:103DC800F0410EF069BD00BF000402400008024047
:103DD8006C37002070B5002584B003462A463C485D
:103DE8008DF80E300C4620218DF80F500EF054FD42
:103DF8004FF0E02C44F24F66DCF818002A46DCF855
:103E080018308342FBD000EB020104D2CA1AB24236
:103E180008D81846F3E7DCF81410C91A01440A4414
:103E2800B242F6D94FF6FF7300930DF10F0201234A
:103E38000DF10E012748284E10F098FA2448012267
:103E480020210EF029FD4FF0E020002182698369CE
:103E58009342FCD002EB010504D2E91AB14207D81B
:103E68001A46F4E74569ED1A2A441144B142F7D9D4
:103E780017481A4D002220210EF00EFD4FF6FF7351
:103E880000930DF10F0201230DF10E0111488DF879
:103E98000E4010F06BFA0E48012220210EF0FCFCB7
:103EA8004FF0E02100208A698B699342FCD002EB35
:103EB800000404D2E01AA84207D81A46F4E74C696D
:103EC800E41A22441044A842F7D904B070BD00BFD8
:103ED800000802406C370020DFA501001FBF020068
:103EE80030B52648264D85B0012280210EF0D4FC3D
:103EF800244801224FF400610EF0CEFC1F48012235
:103F08004FF480510EF0C8FC1E48012220210EF00B
:103F1800C3FC1A48012280210EF0BEFC174800227B
:103F280080210EF0B9FC4FF0E02100208A698B69EE
:103F38009342FCD002EB000404D2E01AA84207D84E
:103F48001A46F4E74C69E41A22441044A842F7D907
:103F58000A480D4D012280210EF09EFC4FF0E02111
:103F680000208A698B699342FCD002EB00040DD2D1
:103F7800E01AA84210D21A46F4E700BF0004024033
:103F88001FBF02000008024080EE36004C69E41AA8
:103F980022441044A842EED30025FFF7C1FDCB48C8
:103FA80000224FF480510EF077FC88232A46C84837
:103FB8008DF80E3020218DF80F500EF06DFC012386
:103FC8001A460DF10E01C34810F0CCF8C048012282
:103FD800202101240EF060FC2A46BD488DF80F50C0
:103FE80020210EF059FC23460DF10F020DF10E01B0
:103FF8000094B84810F0BAF92246B54820210EF0CE
:104008004BFC89232A46B2488DF80E3020218DF8C2
:104018000F500EF041FC234622460DF10E01AD482B
:1040280010F0A0F82246AA4820210EF035FC2A46B6
:10403800A7488DF80F5020210EF02EFC23460DF1D5
:104048000F020DF10E010094A24810F08FF92246DC
:104058009F4820210EF020FC8A232A469C488DF890
:104068000E3020218DF80F500EF016FC2346224604
:104078000DF10E01974810F075F82246944820215A
:104088000EF00AFC2A4692488DF80F5020210EF0B7
:1040980003FC23460DF10F020DF10E0100948D482B
:1040A80010F064F922468A4820210EF0F5FB8B2394
:1040B8002A4687488DF80E3020218DF80F500EF0D3
:1040C800EBFB234622460DF10E01824810F04AF818
:1040D80022467F4820210EF0DFFB2A467C488DF8D7
:1040E8000F5020210EF0D8FB23460DF10F020DF1E1
:1040F8000E010094774810F039F9224674482021BF
:104108000EF0CAFB8C232A4671488DF80E30202108
:104118008DF80F500EF0C0FB234622460DF10E011C
:104128006C4810F01FF82246694820210EF0B4FBB5
:104138002A4667488DF80F5020210EF0ADFB234624
:104148000DF10F020DF10E010094624810F00EF906
:1041580022465F4820210EF09FFB8D232A465C48AB
:104168008DF80E3020218DF80F500EF095FB234668
:1041780022460DF10E0157480FF0F4FF224654482D
:1041880020210EF089FB2A4651488DF80F50202136
:104198000EF082FB23460DF10F020DF10E01009483
:1041A8004C4810F0E3F82246494820210EF074FBF1
:1041B8008E232A4646488DF80E3020218DF80F5060
:1041C8000EF06AFB234622460DF10E0141480FF01E
:1041D800C9FF22463E4820210EF05EFB2A463C4895
:1041E8008DF80F5020210EF057FB23460DF10F02DA
:1041F8000DF10E010094374810F0B8F82246344803
:1042080020210EF049FB91232A4631488DF80E30C3
:1042180020218DF80F500EF03FFB234622460DF16A
:104228000E012C480FF09EFF2246294820210EF04F
:1042380033FB2A4626488DF80F5020210EF02CFB20
:1042480023460DF10F020DF10E010094214810F0E4
:104258008DF822461E4820210EF01EFB7A2192205E
:10426800FFF7B8FD92232A4619488DF80E30202111
:104278008DF80F500EF010FB234622460DF10E016B
:1042880014480FF06FFF2246114820210EF004FB5E
:104298002A460F488DF80F5020210EF0FDFA2346CC
:1042A8000DF10F020DF10E0100940A4810F05EF8AE
:1042B8002246074820210EF0EFFA044822464FF420
:1042C800805105B0BDE830400EF0E6BA0004024067
:1042D800000802406C3700209FED087A084A094B15
:1042E800C7EE007A37EEA77AFCEEE77ABCEEC77A1B
:1042F800C2ED0B7A83ED0B7A704700BF50A9AB4C27
:104308000000014000040140012907D0022903D020
:10431800032908BFC26370478263704742637047CE
:10432800104A136A10B54FF6AA210F4C0B401362BE
:104338000021204610F08EFB0421204610F08AFB55
:104348000821204610F086FB0021204610F04CFF83
:104358000421204610F048FF20460821BDE81040FF
:1043680010F042BF0000014024370020114A136AB0
:1043780010B543F4AA63104C43F0050313620021FF
:10438800204610F0FFFA0421204610F0FBFA08211D
:10439800204610F0F7FA0021204610F0C1FE042153
:1043A800204610F0BDFE20460821BDE8104010F060
:1043B800B7BE00BF00000140243700205B4BEA2055
:1043C80023222DE9F04FC3E9000251229A6040F2FE
:1043D80026200F22C3E9030240F6B83440F22A32FD
:1043E800C3E905424FF0040A7B22C3E907A240F261
:1043F8006315EB22C3E90952FA25C3E91A551D676B
:1044080040F2DC551D644A4D41F2301B4FF41671E1
:104418000124C3E90D5B05224FF00A0864274FF019
:1044280028094FF0030E4FF0C80B40F22625C3E9C8
:104438000B12C3E918449A64D963D965C3F8589034
:10444800C3E91DEEC3F84C80C3F87C801F65C3F830
:1044580044B0C3F8EC504FF4E175C3E9235540F27A
:10446800EE25C3E925555F25C3F8A450C3F8B0501D
:104478009125C3F8A850C3F8B8507D25C3E9365133
:10448800C3F8E0105021C3F8E8106E21C3F8A0105B
:104498005521C3F8AC1087214FF03C0C41F27076DF
:1044A800C3F8E490C3F8B4104FF47A7B2D214FF091
:1044B8000209C3F8C440C3E93D66C3E93F55C3F8E0
:1044C80054B0C3F880C0C3F8C0E0C3F8D4A0C3F8A0
:1044D80084C0C3F8BCC0C3F88870C3F89C70C3F824
:1044E800D060C3E932914FF44871C3F8F01000214D
:1044F800C3E941115021C3E9431440F2DC5132228F
:1045080040F69800C3F8141109241221C3E946287B
:10451800C3E94802C3E94A02C3E94C02C3E94F248C
:10452800C3F83801C3F84411BDE8F08F2C390020D6
:104538002CBD0200C0F30322124B33F8123053FA99
:1045480080F080B2B0F5405F04D0012810D0022876
:1045580013D018B100230B60002070470A4BD3ED2D
:10456800017AFDEEE77A002017EE903A0B6070476B
:10457800064B1B880B6000207047054B1B880B609F
:10458800002070476C6702083C4C0020E03A00208D
:10459800DE3A00200346000A0BD1074A1288103B76
:1045A80013449BB2602B04D8044A52F823300B60A2
:1045B80070470120704700BF686702082C39002047
:1045C80070B582B001A90120FFF7C8F9019B164A0E
:1045D800042B536010D1154D102405F5A4762946F7
:1045E80020460435FFF7BAF90134B542A4B2F6D132
:1045F800FDF710FB02B070BD0D4DFFF7DFFE102474
:1046080005F5A47655F8041F2046FFF7CFF90134C5
:10461800B542A4B2F6D104210120FFF7C7F9FDF78E
:10462800F9FA02B070BD00BF1C3900202C390020F7
:10463800283900200346000A0AD1064A1288103B8E
:1046480013449BB2502B03D8034A42F823107047F7
:1046580001207047686702082C390020704700BFA6
:10466800704700BF30B5164B1D882B0B83B0032B4A
:1046780001A9284620D0FFF78DFF1249019BCB6185
:104688000024CC600C7565F307042D0A65F30F242C
:1046980060F31744000A60F31F640B4D8C61042417
:1046A800C1E90154094B0A4801F1180208240C61B8
:1046B8000DF05EF903B030BDFFF73CFF80B2DCE7D8
:1046C800D43B0020B03B002001643104E43B0020CF
:1046D8001838002070B5124B1D885C6828462146A2
:1046E800FFF7A8FF0F49104BCC6100240C75CC6074
:1046F80065F307042D0A65F30F2460F31744000AD5
:1047080060F31F6404208C61886008204B60086196
:10471800BDE87040054B064801F118020DF028B9B4
:10472800D43B0020B03B002001646104E43B00203E
:10473800183800202DE9F041184B1F88D3F8048061
:10474800B7F5807F17D000231549164C8B760020CB
:104758000422C1E9014208750822C8760F83C1F80E
:104768001C80C1E90302BDE8F0410F4B0F4801F17D
:1047780018020DF0FDB80E4B1B88012BE4D00D4D2F
:10478800102405F5A47655F8041F2046FFF70EF906
:104798000134AE42A4B2F6D1D5E700BFD43B002025
:1047A800B03B002001645104E43B0020183800208D
:1047B800B0470020283900200A4BD3ED027AB0EE2A
:1047C800007AF0EEE77AF4EEC77AF1EE10FA06D83E
:1047D800054A064B01200A211180188070470020E5
:1047E800704700BF3C4C002074000020E43A0020D1
:1047F8002DE9F04D10218AB02248234F214D0DF0AC
:104808009FF90024214B2248C8222146C3E90044CD
:104818004FF00B0810F09CFD26464FF6FF7A4FF636
:10482800FF7B16E05B014FF0010C69462846CDE995
:1048380002ABCDE90032CDE904C8CDE9066CCDF86C
:1048480020C00CF0D7FF90B903340F2C08F10108F1
:1048580014D057F82430B3F5006F4FF00002E1D3BD
:10486800DA0092B2C3F34F3342F00402DBE70334B9
:10487800FEF7A2FC0F2C08F10108EAD10AB0BDE846
:10488800F08D00BF1838002074670208D43B002060
:10489800E83A00202DE9F843704CA38C012B15D081
:1048A800B4F84C50012D12D0B4F87430012B00F03C
:1048B800D080B4F89C30012B00F0CD80B4F8C4301F
:1048C800012B08BF042502D0BDE8F883002505EBBD
:1048D8008503DB00E11803F11C078A68AE0004EBCE
:1048E800070922BBE25840F2DF739A4266D0731977
:1048F80054F83330B3F5E06F4BD0731954F83320C4
:10490800574B9A426FD0731954F83320554B9A423B
:1049180000F08480731954F83320534B9A4229D0FD
:104928002E4404EBC6040023A384BDE8F883042ABC
:10493800F6D14A6840F2DF739A423FD0731904EB0C
:10494800C3035B68B3F5E06F23D0731904EBC303AB
:104958005A68434B9A4246D0731904EBC3035A680A
:10496800404B9A425AD0731904EBC3035A683E4B22
:104978009A42D5D1731904EBC3033C4AD9691B6A1F
:1049880053600023E351C9F804301160FFF7D2FEE9
:10499800C6E77319DB0003F1180222440021D2E9AB
:1049A80001C02344E151C9F804109A682F4BC3E9A8
:1049B80000C0002AA1D0042AC7D0B1E77319DB00D0
:1049C80003F1180222440021D2E901C02344E15135
:1049D800C9F804109A68254BC3E900C0002A86D09C
:1049E800042AABD09CE706EB05084FEAC80808F193
:1049F800180323441D495A689B684B60A044002350
:104A0800E351C9F804300A60FFF72CFED8F80830E3
:104A1800002B3FF478AF042B9ED081E706EB050806
:104A28004FEAC80808F11803234410495A689B68DC
:104A38004B60A0440023E351C9F804300A60FFF733
:104A480049FED8F80830002B3FF464AF042B8AD015
:104A580066E702253BE7032539E700BFE83A00206F
:104A6800640130046401600464015004D43B0020F4
:104A780008B50A4B0A4800212422C3E9001110F0A6
:104A880067FC084801210DF05BF806480CF042FF6E
:104A980000B908BDBDE80840FEF78EBBDC3B00202E
:104AA800B03B0020183800202DE9F04F2D488BB07E
:104AB80000240121CDE901440DF030F8B0F1000ADD
:104AC80042DD284D284E02E00134A2453CD001AB1E
:104AD80003AA012128460CF09DFF0028F4D1039871
:104AE80001A9FDF7BBFAB38C8BB3B6F84C3083B38E
:104AF800B6F8743083B3B6F89C3083B3B6F8C430D4
:104B0800002BE1D1BC22042303EB8303B11806EB8D
:104B1800C3090DF10C080023B3504B60B8E80F002F
:104B2800CE46AEE80F0098E80700019F8EE8070020
:104B38000134C9F81C70029BC9F820304FF0010BF2
:104B4800A245A9F824B0C2D10BB0BDE8F08F1C2251
:104B5800DAE744220123D7E76C220223D4E7942220
:104B68000323D1E718380020E83A00202DE9F04D5A
:104B780002218AB02348244F224E0CF0E1FF002482
:104B8800224B23484FF4A0722146C3E90044A046B3
:104B980010F0DEFB25464FF6FF7A4FF6FF7B18E054
:104BA8005B014FF0010C4FF0080E69463046CDE925
:104BB80002ABCDE90032CDE90458CDE9065CCDE978
:104BC80008CE0CF017FE90B90334182C08F1010830
:104BD80014D057F82430B3F5006F4FF00002DFD33C
:104BE800DA0092B2C3F34F3342F00402D9E7033438
:104BF800FEF7E2FA182C08F10108EAD10AB0BDE87C
:104C0800F08D00BF40380020B0670208003E002049
:104C1800E83B00202DE9F843B04CA38C012B24D0AD
:104C2800B4F84C50012D21D0B4F87430012B00F0A9
:104C38007D81B4F89C30012B00F07A81B4F8C4303F
:104C4800012B00F07781B4F8EC30012B00F074816F
:104C5800B4F81431012B00F07181B4F83C31012B08
:104C680008BF072502D0BDE8F883002505EB8503BA
:104C7800DB00E11803F11C078A68AE0004EB0708A3
:104C8800002A44D0042A3BD14B68B3F5707F00F06A
:104C98003181731904EBC3035B68B3F5B46F00F09B
:104CA8000081731904EBC3035A6840F2F2339A4245
:104CB80000F0DB80731904EBC3035A68884B9A42EF
:104CC80000F0B780731904EBC3035A68854B9A4206
:104CD80000F09480731904EBC3035A6840F202632E
:104CE8009A4270D0731904EBC3035A687E4B9A42F8
:104CF8004FD0731904EBC3035A687C4B9A4239D0DE
:104D08002E4404EBC6040023A384BDE8F883E358CB
:104D1800B3F5707F00F0EE80731954F83330B3F5B3
:104D2800B46F00F0BE80731954F8332040F2F233A8
:104D38009A4200F09A80731954F83320684B9A42CB
:104D480077D0731954F83320664B9A4256D07319AA
:104D580054F8332040F202639A4234D0731954F85D
:104D68003320614B9A4214D0731954F833205F4BA7
:104D78009A42C5D1731904EBC3035D4AD9691B6A0A
:104D880053600023E351C8F80430116000F094FB2D
:104D9800B6E706EB05094FEAC90909F118032344E8
:104DA80053495A689B684B60A1440023E351C8F8F3
:104DB80004300A6000F06CFBD9F80830002BD3D01F
:104DC800042B96D09CE706EB05094FEAC90909F1BF
:104DD8001803234446495A689B684B60A144002342
:104DE800E351C8F804300A6000F04CFBD9F80830E9
:104DF800002BB3D0042B3FF475AF81E706EB050910
:104E08004FEAC90909F11803234439495A689B68CC
:104E18004B60A1440023E351C8F804300A6000F055
:104E280083FBD9F80830002B91D0042B3FF452AF04
:104E380066E706EB05094FEAC90909F11803234497
:104E48002B495A689B684B60A1440023E351C8F87A
:104E580004300A6000F050FBD9F80830002B3FF40A
:104E680070AF042B3FF42EAF4AE706EB05094FEA73
:104E7800C90909F1180323441D495A689B684B6006
:104E8800A1440023E351C8F804300A6000F058FB3D
:104E9800D9F80830002B3FF44EAF042B3FF40AAF8B
:104EA8002EE706EB05094FEAC90909F1180323445F
:104EB8000F495A689B684B60A1440023E351C8F826
:104EC80004300A6000F028FAD9F80830002B3FF4C3
:104ED8002AAF042B3FF4E5AE12E700BFE83B002001
:104EE800EF01FF0CEF02FF0CA1686B00A2686B00DA
:104EF800003E002006EB05094FEAC90909F118032D
:104F080023440F495A689B684B60A1440023E3512E
:104F1800C8F804300A6000F069FAD9F80830002BA4
:104F28003FF4FAAE042B3FF4B4AEE9E602259DE661
:104F380003259BE6042599E6052597E6062595E6CB
:104F4800003E002008B51148114B0021C0E90011AE
:104F5800D622184610F0FCF90346042202204FF02E
:104F6800060C0821A3F84600A3F86A200948A3F80C
:104F78008EC00A22A3F8B210A3F8D6200CF0CAFCFF
:104F880000B908BDBDE80840FEF716B9083E002084
:104F9800283D0020403800201F4B5A8C013292B225
:104FA800092A8ABF01225A841A62B3F846200132BC
:104FB80092B2092A8ABF0122A3F846205A64B3F89C
:104FC8006A20013292B2092A8ABF0122A3F86A2014
:104FD8009A66B3F88E20013292B2272A8ABF01223C
:104FE800A3F88E20C3F88C20B3F8B220013292B215
:104FF800272A8ABF0122A3F8B220C3F8B020B3F849
:10500800D620013292B2032A8ABF0122A3F8D62001
:10501800C3F8D420704700BF283D002038B5764C2F
:10502800238C012B39D0B4F84450012D56D0B4F854
:105038006830012B72D0B4F88C30012B00F09080CE
:10504800B4F8B030012B00F0AE80B4F8D430012BA6
:1050580000D038BD00236948C4F8B80004210822EC
:10506800C4E92F13C4F8C42084F8C83000F0F2FD56
:10507800634B644AD3E90030A2F11801C4F8CC307C
:10508800C4F8D000604B61480CF072FC002800F0B6
:10509800AA80BDE83840FEF78FB800234FF462714C
:1050A8000822C4E9023321602261237500F072FAF4
:1050B800534A554B5548D2E90021A261E16104F1F8
:1050C800180221460CF054FC0546002800F08C809C
:1050D800FEF772F8B4F84450012DA8D1002340F22D
:1050E800F1310822C4E90B336162626384F8383015
:1050F80000F0DAFB424B464A4448D3E90031E36307
:105108002164414BA2F118010CF032FC00286BD04D
:10511800FEF752F8B4F86830012B8CD1002340F226
:1051280042510822C4E91433A164A26584F85C30B2
:1051380000F0C4FA324B374AD3E90030A2F1180123
:1051480023666066304B31480CF012FC02250028BB
:105158004AD0FEF731F8B4F88C30012B7FF470AFE9
:1051680000232D48206704210822C4E91D13E267A3
:1051780084F8803000F074FD214B284AD3E90030D0
:10518800A2F11801C4F88430C4F888001E4B1F48E7
:105198000CF0EEFB032538B3FEF70EF8B4F8B03088
:1051A800012B7FF452AF00231D49C4F89410082244
:1051B8000425C4E92653C4F8A02084F8A43000F0DC
:1051C800B9FD0F4B174A1148D3E90031C4F8A8308C
:1051D800C4F8AC100C4BA2F118010CF0C9FB18B1C3
:1051E800FDF7EAFF31E7052505EBC50504EB850466
:1051F8000023238438BD00BF283D002006686B00CB
:10520800083E0020F43D0020103E002040380020D9
:10521800643D0020883D0020EF10FF0CAC3D0020CD
:10522800EF20FF0CD03D00202DE9F04F00258BB07A
:1052380035482946CDE901550CF070FCB0F1000A5B
:105248002CDD324B304E1D602C46314D02E00134CE
:10525800A24523D001AB03AA002130460CF0DAFBAB
:105268000028F4D1AB8CE3B1B5F84C30C3B3B5F832
:105278007430C3B3B5F89C30C3B3B5F8C430C3B306
:10528800B5F8EC30C3B3B5F81431C3B3B5F83C3155
:10529800002BDCD14FF49A72072303E00BB0BDE872
:1052A800F08F1C2203EB8303A91805EBC3090DF14A
:1052B8000C080023AB504B60B8E80F00CE46AEE8B0
:1052C8000F0098E80700019F8EE80700C9F81C70D6
:1052D800029BC9F820304FF0010BA9F824B0B6E7BB
:1052E80044220123DEE76C220223DBE79422032316
:1052F800D8E7BC220423D5E7E4220523D2E74FF4FC
:1053080086720623CEE700BF40380020383E0020D2
:10531800E83B002000000000F8B52949294B4878EF
:10532800294C5E889D88002262F3451048701878E1
:1053380022609C79254B76BA6DBAB6B2ADB21A60C6
:1053480050B1FBF7AFFC1AA3D3E90023FBF714FD18
:10535800FBF7EAFF1E4F38803046FBF7A3FC16A385
:10536800D3E90023FBF708FDFBF7FEFF9FED197A51
:10537800194E07EE900A77EEC77A2846C6ED007AEE
:10538800FBF790FC0CA3D3E90023FBF7F5FCFBF734
:10539800EBFF124B124D04F003021A60114A124B34
:1053A8002860C4F301111170A4091C80F8BD00BF66
:1053B8009A9999999999D93F9A9999999999B93FA7
:1053C800A8440020003E00205C3E0020583E0020FB
:1053D800064D002000007A44084D0020604D002052
:1053E8000C4D0020F94C0020044D00202DE9F84315
:1053F8001A4B1B495D781B4A00230B601360EB07AF
:1054080022D5DFF87C8098F80010E9B9164B174EC2
:105418001960174F174B31603960196041F28834B1
:1054280041F2923900E039682046FEF7BFFA04F1EC
:105438000A000134316880B2A4B2FEF7B7FA4C45CD
:10544800F1D1012388F800300B4B0C4AC5F3410118
:10545800C5F3C0051D701180BDE8F883003E00202B
:10546800483E00204C3E00201C4E0020104E0020DC
:10547800184E0020144E0020E84C0020024D002059
:10548800084E00200148FCF735BD00BF003E002053
:1054980010B4064A064B5168064812680124046095
:1054A800C3E900215DF8044B704700BF003E0020AF
:1054B800283E0020443E00200A490B4B0A684868F1
:1054C800D1B20129C3E9002000D0704710B40748C1
:1054D800074C084A0023238003805DF8044B1180A1
:1054E800704700BF003E0020203E0020403E0020C4
:1054F8003E3E00203C3E0020074908480A88CB79F8
:105508004979C1F3801101700548064952BA03F080
:10551800030302800B707047003E0020074E0020F6
:105528001C3E0020FD4C0020034B044ADB7903F0AD
:105538000F031380704700BF003E00201E3E00206E
:1055480030B40E4B0E4C19780E4800220129226007
:1055580002609C785878DA789B880BD0022907D1AA
:105568001204094D094942EA042202432A600B80C9
:1055780030BC7047064B187030BC7047003E0020A6
:10558800503E0020543E00200C4E0020EE4C0020DF
:10559800FE4C0020F8B53C4BDFED3C6AD3ED027AB7
:1055A8003B4D67EEA67AB5EE007A67EE877AFDEE98
:1055B800E77A17EE903A1CB2364B002C1B88BCBF1A
:1055C800644224B2032B5BD0022B51D0012B4ED066
:1055D800314808210DF05AF9304A2B781268012811
:1055E8000CBF43F0080303F0F303012A2C4A127896
:1055F8000CBF43F0100303F0EF03002A3DD043F043
:105608002003284A2848B2F90020012A0CBF43F099
:10561800400303F0BF034FF480412B700DF036F9BF
:105628002B7838BB43F080032049214A002663F3D6
:1056380007060B7817885A3363F30F261D4B1B8810
:1056480063F317461C4BD3E90001FBF76DFE2212EA
:10565800002362F3070364F30F233A0A62F3174344
:1056680060F31F6667F31F632E606B60F8BD00234D
:105678002B70ADE703F07F03D6E703F0DF03C0E745
:1056880001232B70A4E700BF3C4C002000007042AF
:10569800083E0020024D002000040240A04D0020DA
:1056A800F84C00208C4D002000080240FB4C0020E4
:1056B800EE4C0020064D0020303E00202DE9F0433E
:1056C800674C684A94ED027AD4ED047A13786649F7
:1056D800FDEEC76AFDEEE77A16EE900A0133088000
:1056E800DBB26249137017EE900A042B08804ED97A
:1056F80001231370DFF8A8915D4FD9F800305D4E93
:105708005D4D01223A70212202E0002A00F0A380B8
:10571800581C85FB001E4FEAE07C36F813109846AB
:10572800CCEBEE0303EB4313013A0129A0EB03038F
:1057380092B2EAD1C9F80030504B33F818307B7078
:10574800F2EE046A4E4BD4ED037A188827EE267AD7
:1057580067EEA67ABDEEC77A020A17EE103AFDEE9A
:10576800E77A002162F3070160F30F2117EE902A10
:1057780043F3072060F317411BB263F31F6142F341
:105788000723C7F80210BB71FA71BDE8F083013B2B
:10579800032BFAD801A252F823F000BFFD560108E6
:1057A80015580108EB570108B5570108354A364B1B
:1057B800D2ED007A18882E4BF0EEE77AFDEEE77A04
:1057C800002117EE902A9A7042F3072204245A7097
:1057D800020A1C70DA70187159719971D971BDE893
:1057E800F0832A4B2A4A19681268214B100A0324AD
:1057F8005A70120C1C7098700C0A080CDA7000228F
:1058080019715C719871DA71BDE8F083214B224AF5
:10581800D3ED007A214BFCEEE77A197817EE900A5F
:10582800D2ED007A0024FCEEE77A224661F3070203
:10583800010A17EE903A61F30F220D4960F31742FF
:10584800CB711B0A63F31F6202238C70C1F803201B
:105858000B80BDE8F083C9F800307A7070E700BFAC
:10586800BC470020EC4C0020A83E0020AA3E0020A7
:10587800083E0020603E0020E1830F3E10680208C9
:10588800EA4C00205C4D00201C3E00200C4E0020FD
:10589800184E002058480020A43E0020FE4C00204E
:1058A800183E0020000000002DE9F843CA4B9FED88
:1058B800CB7AD3ED027ACA4BF4EEC77A9B8AF1EE23
:1058C80010FA48BF77EE677A06EE903A9FEDC57AF0
:1058D800F8EEE66A67EE877A87EEA67AFCEEC77A74
:1058E80017EE903A9CB22046FBF7DCF9B4A3D3E953
:1058F8000023FBF741FABC4B06460F46C3E9006795
:1059080000220023FBF7A0FC002840F0A980B74D37
:10591800ADA3D3E90023D5E90001FBF72DFA024630
:105928000B463046394616461F46A9A3D3E900233D
:10593800FBF722FA02460B4630463946FBF766F873
:10594800AB4A13780133DBB2062BC5E900015ED9F7
:10595800A84B9FEDA97AD3ED017AA84B67EE877A19
:105968000121FCEEE77A117017EE902A1FFA82FCEB
:10597800A3F800C0DFF8D492A14DD9F80030DFF8C1
:10598800D0E2A04F01222A70212202E0002A00F072
:105998001181581C87FB0016C4173EF8131098464F
:1059A800C4EBE603013A03EB431392B2C31A00298E
:1059B800ECD0C9F80030944B33F818306B70934B27
:1059C800D3ED027A93ED037AF2EE046A67EEA67AD3
:1059D80027EE267AFDEEE77ABDEEC77A17EE903A03
:1059E80000216CF3070117EE102A4FEA1C2C1BB29A
:1059F8006CF30F2112B263F317411B1263F31F619B
:105A08001312C5F80210AA71EB71BDE8F883052BD3
:105A18002AD1784B9FED787AD3ED017A7C48774B81
:105A280067EE877A0621FCEEE77A117017EE902A66
:105A380090ED027A1A80F2EE047A27EE677A704ABD
:105A4800BDEEC77A44F2060417EE103A1BB21812DC
:105A58004FF0FF3114809370D0705160BDE8F88327
:105A6800624D002000216BE71370624A9FED627A55
:105A7800D2ED017A67EE877A013BFCEEE77A17EE02
:105A8800902A1FFA82FC5D4AA2F800C0604A92ED93
:105A9800027A052BB9D801A252F823F07D590108E2
:105AA8008D5B0108675B0108BD5A0108135A01089C
:105AB8003F5A0108574B584AD3ED007A504D574981
:105AC80012880978E970FCEEE77A042017EE903A1C
:105AD8006B701B0A2870AB70002A69D0012A6DD040
:105AE800022A0CBF0123FF234D4A9FED4E7AD2EDC7
:105AF800007A2B7167EE877A4FF40051FDEEE77A52
:105B0800494817EE903A1A12AA716B710CF0BEFE52
:105B18000821044645480CF0B9FE454B4FF4804136
:105B2800074641481E880CF0B1FE4FF400418046FC
:105B380040480CF0ABFE404A36011278F6B206EB4C
:105B4800C21602363444B8FA88F304EBC7045B097A
:105B580004EB801404EB4314EC71BDE8F883284D82
:105B680003232B70354B1B786B70FBF7DDFBFF2392
:105B7800010A220AA870E9702C716A71AB71EB7185
:105B8800BDE8F8832E4A2F4B2F4811681A681C4B22
:105B98000088597002241C701A710C0AD871090CFB
:105BA800100A120C9C70D97058719A71BDE8F8836C
:105BB800022399E7C9F800306A7000E7002393E7E9
:105BC80068CBB91457959D3F000000606666EE3FAC
:105BD800000000A09999A93F3C4C0020000000005B
:105BE8003C47002000007042F04C0020303E00206E
:105BF800FC4C0020E84A0020F304353FEA4C002022
:105C0800083E0020E1830F3E10680208BC470020D0
:105C1800DC4A002058480020024D0020FA4C0020A1
:105C2800504800200000C84200080240000402401A
:105C38008C4D002000000240044E0020FB4C002048
:105C4800184E0020104E0020064D0020143E002063
:105C5800603E002001480BF0DFB900BF083E00207D
:105C680038B5254BD3E90001FBF736FB2349244B14
:105C780000220446D1E90001FAF7C8FEFBF72CFB25
:105C8800204B21491B68214A096812689B0003EBD5
:105C980041031F4913441F4A0D68126803EBC503EB
:105CA80003EB02131C4A126824B2002164F30701B3
:105CB80003EB42132412194A64F30F21184C12689B
:105CC800246800B260F3174103EB8213001260F3FB
:105CD8001F6103EBC4131348134C144A246800884B
:105CE800116000EB440112481371008851711E24A1
:105CF8009471D07138BD00BFA03F0020E83F00205C
:105D080000408F40A83F0020AC3F0020C43F002047
:105D18007C3F0020743F0020DC3F0020D43F00205F
:105D2800D03F00208C4D0020E03F0020083E00209E
:105D3800004D0020284A294B108810B5B3F800E020
:105D4800002845D1BEF1000C18BF4FF0010C4FEAF6
:105D5800CC1C234BD3ED027AFCEEE77A002117EE38
:105D6800903A9AB21F4B1C781F4B1B8803EB041305
:105D78001E4C247803EB44131D4C246803EB4403A6
:105D88001C4C248803EB84031B4C248903EBC403B9
:105D98009C441A4C1A4B24881B7804EB03144FEAD2
:105DA8001E2363F3070162F30F21130A63F31741FC
:105DB80000236CF30703020A60F30F2362F317430F
:105DC800104A64F31F616EF31F631360516010BDC6
:105DD8004FF0C00CBDE700BFA8440020AC44002031
:105DE8005C480020064E0020404A0020054E002056
:105DF800A84D002088470020684800207400002033
:105E0800F84C0020083E00202DE9F047654A138829
:105E1800012B2DED028B1AD153899FED636ADFEDBB
:105E2800637A634854889188048006EE903A13890F
:105E38008180F8EEE66A07EE103AE6EE867AD388B5
:105E48004380B8EE477AC0ED037A80ED027A594B69
:105E58001988002940F0A180574B58489860584845
:105E6800B2F8546001602322C3E900125549564D27
:105E7800DD6004240C82512119835449D9615449A5
:105E880019625449596254499C8200224A6042600E
:105E980082605249524A19639A625249524AD962F7
:105EA8005A63524B524A53481A605349534A544C06
:105EB800DFED548ADFF88C81534FDFF88CA1DFF8CF
:105EC8008C919FED528ADFED527ADFF884E1DFF89A
:105ED80084C19FED500A3C2303604FF4167008807C
:105EE8004D4933481360012E4FF00003394E04BF6B
:105EF8008561C561E3626363A3622363E3634B6007
:105F08008B60CB600661454E46614548454AC0ED09
:105F1800008A4548106045485060454890604548AB
:105F2800454D1061454E0B6100204B618B61CB6183
:105F38000B624B628B62CB6208800121A063AAF8D6
:105F48000000A9F80000C8F800103960718505F153
:105F580008003B4982ED038AF3EE0E0AC2F814E00A
:105F6800C2F818E082ED0D8AC2ED0C7AC2F81CC0A6
:105F7800C2F820C053629362D162AB60EB6003F059
:105F880031FEF0EE680AB0EE480ABDEC028B05F16E
:105F98000C00BDE8F04703F025BEBDEC028BBDE860
:105FA800F08700BFAC3E0020CDCC4C3D00007AC449
:105FB80088470020B04700203C47002000803B4530
:105FC80074470020784A00200080BB450000FA434F
:105FD80000804A440000FA42B84A00200AD7A33B8E
:105FE80017B75138CDAFE6386F12833B28450020EC
:105FF80000001644844500201640002080450020FB
:1060080018400020CDCCCC3D1C4800200000C842E0
:1060180000005C4200004843F44A00200000FAC235
:106028005C4A0020B04400200000A04200001B434E
:10603800000016430000B4427440002020460020AF
:106048000000A04020480020244A002014400020DE
:106058000000E14300806844224B1B88002B3FD19D
:10606800214B9FED226A9A8AD3ED026A93ED0C7A4E
:1060780007EE902AF8EEE77AB5EEC07A67EEA67AD0
:10608800F1EE10FAC7EE866A10B4C3ED046A12DDA9
:1060980093ED0A6AB5EEC06AF1EE10FA0BDDD3EDA6
:1060A8000B7AF5EEC07AF1EE10FA04DDC7EE876AD6
:1060B800C6EE077A03E0DFED0E7AF0EE676A0D4A66
:1060C8000D4C0E4B0E48B2F84810C4ED077A00226A
:1060D8005DF8044BC0ED076A19805A8006F058BB7A
:1060E80006F056BBB04700203C4700200000704235
:1060F80000000000AC3E0020744B002060400020EF
:10610800984B0020000000002DE9F04F2DED048B86
:106118009FED338ADFF804B1DFED320A32488BB0E5
:10612800B0EE480A03F05EFDDBED007A9FED2F7AB2
:10613800F0EEE77AF4EEC77AF1EE10FA40F1DC817E
:106148002B4C25A3D3E90023C4E90023DFF8D0A012
:10615800284EDAF80040284996ED098A0691012C64
:1061680000F01A822548DFF8BC900790244B0022E3
:10617800C1E90023234B0022C0E90023224B234915
:10618800234D1B88DFF8A080174A0020C5E90001CD
:10619800204982ED008A0020012BC8E9000100F0A7
:1061A800C181D9ED016A1C4BF5EEC06AF1EE10FA17
:1061B80093ED047AD3ED057A38DBB0EEC86AF0EED9
:1061C800E76AB4EEE66AF1EE10FA8BED067A36D598
:1061D800F1EE487A33E000BF9A9999999999B93FB5
:1061E80000004843000000002C0000200000164377
:1061F800903F00203C47002050000020480000202D
:106208000000184000002840AE470020000014405D
:10621800400000200000314088470020184000203E
:10622800C43F00203C4C002038000020B4EE487ADF
:10623800F1EE10FAC8BFB0EE487A8BED067ABF4B84
:10624800D3ED006AB1EE666AB4EE676AF1EE10FA51
:10625800C8BFF0EE467AF4EEC76ACBED077A99ED3F
:10626800057AD9ED047AF1EE10FAB4EEE77A48BF70
:10627800CBED066AF1EE10FA40F12B81D9ED036AF5
:10628800F4EEE67AF1EE10FA40F13481B5EEC07A18
:10629800F1EE10FAACBF01230023A94A1360A94A02
:1062A800B2F90020012A00F08A80A74A9FEDA77A58
:1062B800D2ED007AF0EEE77AF4EEC77AF1EE10FA52
:1062C8007DDCB7EE007A012BF4EEC77A00F08F84FC
